:02000004080AE8
:1000000000000A08AC5A0A080000060006000501B4
:0800100004027E05000000005F
:0400180038510A0849
:1000200009480A4908B5884205D0094A824202D0E7
:10003000121A04F065FF0748074A0021121A04F05B
:100040006AFF064808BD00BF00000020DC590A080E
:10005000A8000020A80000209C0B00209C0B002082
:1000600070B503F07BFB074B074C1E46E41AA4084F
:100070000025A54204D056F8253098470135F8E709
:1000800070BD00BF7C590A08C4590A0800F066B860
:1000900008B500F0A9F9BDE8084003F021BB01F064
:1000A0000DBE01F013BE0078B0FA80F04009704731
:1000B000012303707047704710B50446043002F006
:1000C000FDFC204610BD10B504463C3002F0F6FCA5
:1000D00004F1280002F0F2FC204602F0EFFC20467A
:1000E00010BD10B50446542103F011FC204610BD8C
:1000F00008B501F0F5F9012008BD10B50446036804
:100100009B689847A368013BA3602BB923682046EE
:10011000BDE81040DB68184710BD000010B5064B65
:1001200004460360806928B14368013B43600BB912
:10013000FFF7E3FF204610BDF8560A0810B5044645
:10014000FFF7ECFF204610BD10B50446FFF7E6FFB1
:1001500020461C2103F0DBFB204610BD37B5734C55
:100160000121208803F04AFB0021208803F057FB7F
:100170004FF4FA7001F0D2FD03F06AFB02F01CF9B3
:1001800003F080F94FF4165103F062F94FF47A70DE
:1001900001F0C4FD03F05CFB02F030F9644C654DE6
:1001A000207003F06FF9644902F030FA03F06AF945
:1001B0000A22217802F0B3FA604800F079FF4FF488
:1001C000FA7001F0ABFD5E4B1A681C460AB90123B8
:1001D0002B7003F057F95B4902F018FA03F052F95B
:1001E0000A22216802F09BFA03F04CF9564902F00A
:1001F0000DFA03F047F929780A2202F090FA4F48E5
:1002000000F03AFF514D524C28704C4800F0E0FF8E
:10021000207003F037F94F4902F0F8F92B780F2BD3
:1002200004D803F02FF94C4902F0F0F903F02AF951
:100230001022297802F033FA03F024F9474902F03A
:10024000E5F923780F2B04D803F01CF9424902F09A
:10025000DDF903F017F92178102202F020FA4FF0AF
:10026000FF330093012202213D4801F0F3F94FF4DE
:10027000FA7001F053FD3B4801F043F83A4B3B4D17
:1002800018601C4660B9012336482B7001F034F821
:100290004FF4FA7001F042FD1421324801F098F851
:1002A00003F0F0F8324902F0B1F903F0EBF80A225A
:1002B000216802F034FA03F0E5F82E4902F0A6F9BD
:1002C0002D4C03F0DFF80A22297802F028FA2B4897
:1002D00000F08CFF2A49204602F064FC5023A363FF
:1002E000092200232749284801F070FC0023092235
:1002F0002649274801F06AFC00230922254926489F
:1003000001F064FC002309222449254801F05EFC29
:100310000121072003F072FA0021072003F07FFA81
:100320000F4803B0BDE8304001F009B914000020C7
:1003300070050020810500204C510A08F0050020BE
:100340001006002071510A0888510A08E0050020B3
:10035000020100209D510A08AF510A08B1510A0854
:10036000AC0000205001002074050020830500200F
:10037000DE510A08F1510A08040100209805002006
:1003800007520A08880500201A520A08780500203A
:1003900025520A08B80500202F520A08B00500208F
:1003A0003B520A0870B5064600200C4601F0EAFBF5
:1003B00008B9002070BD002C03DD01F039FA0546B4
:1003C00000E0002573783BB9002C07DD01F030FA1E
:1003D000401BA04202D3ECE7012070BD01F0FEFB00
:1003E000F0E70000000000002DE9F04F9E488BB0C0
:1003F00000F094FE044603F045F89C4902F019F918
:1004000003F040F89A4902F001F903F03BF80A22A0
:10041000214602F04EF9944800F0B0FE824603F007
:1004200031F8944902F0F2F803F02CF80A22514610
:1004300002F03FF9904BDFF8A4821B788F4F904D6C
:10044000ABB1904800F09CFF03F09AFDC8E90001B1
:100450008C4800F0A3FF03F093FDC7E900010021E1
:10046000884800F0CBFF003018BF0120287003F04F
:1004700009F80226844902F0C9F803F003F8D8E924
:100480000023009602F009FA02F0FCFF7F4902F017
:10049000BDF802F0F7FF0096D7E9002302F0FDF95E
:1004A00002F0F0FF7A4902F0B1F82B781BB102F0AC
:1004B000E9FF784902E002F0E5FF774902F0B9F878
:1004C000204604F0B3F9754904F0FAF8744904F0D1
:1004D000B5FA03F055FD0D46044602F0D3FF63491B
:1004E00002F0A7F802F0CEFF6E4902F08FF802F09A
:1004F000C9FF0223009322462B4602F0CEF90022C8
:1005000000232046294604F001F848B90022664B32
:100510002046294604F018F820B10024624D01E07D
:100520000024002522462B46604800F082FE5F48EA
:1005300000F0AFFE00225E4B03F076FD00225D4B23
:1005400003F0C0FB03F030FB00225B4B03F096FE90
:1005500004460D46594EDFF88891C6E90045D9E9B1
:10056000002303F0C9FF20B9C9E900454FF0010994
:1005700001E04FF000096FF497730AEB030003F0FA
:10058000EDFC35A3D3E9002303F04EFD00224C4BD4
:1005900003F098FB0D46044602F074FF334902F065
:1005A00048F802F06FFF474902F030F802F06AFFA6
:1005B0000123224600932B4602F06FF900223E4BA6
:1005C0002046294603F030FD00223A4B03F07AFB27
:1005D00003F0EAFA0022384B03F050FE3A4B04468F
:1005E000D3E900230D4603F091FF38B9374B20467D
:1005F000D3E90023294603F0A7FF10B118A5D5E9D8
:100600000045334BDFF8DCA0C3E90045DAE90023FD
:100610002046294603F070FF10B9CAE9004503E0FF
:10062000B9F1000F00F094802A4800F076FF002214
:100630001146284801F0CEF82749264801F0E6FF88
:10064000D6E9000100221C4B03F060FF024600289F
:100650004AD00022092148E0CDCCCCCCCCCCFC3F08
:100660006666666666A65840F005002020560A08B1
:1006700048520A0855520A0883050020B005002098
:10068000010100205001002062520A0873520A083A
:1006900084520A088B520A088F520A0800004E43FF
:1006A0000000874392520A080000F03F980500209E
:1006B00000408F400000E03F0000244088050020FB
:1006C000008052409A520A080000002008000020D2
:1006D00078050020AC000020A2520A08B8050020CE
:1006E000D8050020E805002008214FF00109BB488B
:1006F00001F070F8CDF80090D6E90023B74802F079
:10070000C7F800220C21B54801F064F8B449B34899
:1007100001F07CFF4A460021B04801F05BF8B14986
:10072000AE4801F073FF08214A46AC4801F052F888
:1007300022462B46CDF80090A84802F0A9F80C21DB
:10074000A6484A4601F046F8DF21A44801F062FFBE
:1007500002F098FEA44901F059FF02F093FE824690
:1007600001F066F8DFF8E8920A22D9F80010DFF805
:10077000E4B2411A5046DFF8E0A201F0A4FF02F013
:1007800081FE9A4901F042FF02F07CFEDAF8001087
:100790000A2201F08EFF01F04BF8D9F80030C01AA0
:1007A000DAF80030CA46834280F0AF80904C02F005
:1007B00069FE904901F03DFF8F4904F1280002F0E5
:1007C000F1F98E4906A802F0C0F906230093D6E994
:1007D000002302A802F0F7F902A906A802F024FA01
:1007E000874902F02DFA014604F13C0002F0C0F9FD
:1007F00002A802F063F906A802F060F9814D824B6D
:100800002A46214600938148814B00F013FB02F0F9
:1008100039FEA16A01F00DFF02F034FEE16B01F038
:1008200008FF02F02FFE7B4901F0F0FE02F02AFEE5
:100830000A22296801F073FF02F024FE764901F0D4
:10084000E5FE02F01FFE696801F0F3FED6E9000143
:100850000022724B03F05AFE00284ED0704D2B78C8
:10086000002B4AD06F4C06A8214602F090F96E4B3F
:100870006E49D3E9002302A802F048FA02A906A8AB
:1008800002F0D2F96A4902F0DBF90146204602F093
:100890006FF902A802F012F906A802F00FF9654BF1
:1008A00022681B7864498DF8003006A83C2301F0CB
:1008B000C3FB069C00212046FFF774FD6378BFF35D
:1008C0005F8F002B00F05A8100212046FFF76AFD60
:1008D0002378012B40F05281247B079828B143688C
:1008E000013B43600BB9FFF708FC24B902F0CAFDD5
:1008F000524901F09EFE00232B7000F099FF012366
:10090000CAF800008BF8003010E19BF800304C4E24
:10091000002B00F0A38000F08BFFD9F80030C01A44
:10092000484B1B68834280F09980314F02F0AAFD4A
:10093000454901F07EFE454907F1280002F032F9F1
:100940002E4906A802F001F906232246009302A8C8
:100950002B4602F038F902A906A802F065F92849E9
:1009600002F06EF9014607F13C0002F001F902A81D
:1009700002F0A4F806A802F0A1F8224C224B22466D
:10098000394600932148224B00F054FA02F07AFDD8
:10099000B96A01F04EFE02F075FDF96B01F049FEF7
:1009A00002F070FD1B4901F031FE02F06BFD0A22DE
:1009B000216801F0B4FE02F065FD174901F026FE42
:1009C00002F060FD616801F034FE00F031FF0023A9
:1009D000C9F800008BF80030A6E000BFAC00002092
:1009E000A9520A08AB520A08B2520A08BF520A08B2
:1009F00004010020CF520A08DF520A0813530A08E4
:100A00001D530A08F80500201F530A08540100204E
:100A10002400002024530A0843530A0800003440ED
:100A200000010020C00500208805002065530A0849
:100A30006A530A08820500206D530A0870530A0899
:100A4000510100201000002098530A08A8530A08FA
:100A5000D00500200C0600201800002033787C4EC2
:100A6000002B00F08D8000F0E3FEDAF80030C01AB1
:100A7000784B1B68834280F08380774C02F002FD44
:100A8000764901F0D6FD764904F1280002F08AF893
:100A9000744906A802F059F80623009302A8D8E981
:100AA000002302F090F802A906A802F0BDF86E49F2
:100AB00002F0C6F8014604F13C0002F059F802A821
:100AC00001F0FCFF06A801F0F9FF684D684B2A46CB
:100AD000214600936748684B00F0ACF902F0D2FC65
:100AE000A16A01F0A6FD02F0CDFCE16B01F0A1FDD1
:100AF00002F0C8FC614901F089FD02F0C3FC0A2242
:100B0000296801F00CFE02F0BDFC5D4901F07EFD9C
:100B100002F0B8FC696801F08CFD00F089FE594BC9
:100B200000221860584B1A700123337001210720EE
:100B300002F075FE4FF47A7001F0F0F80021072002
:100B400002F06DFE4FF4FA6001F0E8F800F070FE7C
:100B50004E4C2368C01A4E4B1B68834274D24D48DA
:100B600000F0DBFC4C4B4D4A1B681268012106A8C3
:100B700002F0F4F800F05CFE206065E00024ACE6D2
:100B80003378002BD2D000F053FEDAF80030C01AD0
:100B9000304B1B688342C9D22F4C02F073FC404992
:100BA00001F047FD3F4904F1280001F0FBFF2D490A
:100BB00006A801F0CAFF06230093D7E9002302A884
:100BC00002F001F802A906A802F02EF8264902F068
:100BD00037F8014604F13C0001F0CAFF02A801F019
:100BE0006DFF06A801F06AFF204D214B2A462146E1
:100BF00000932048204B00F01DF902F043FCA16A4D
:100C000001F017FD02F03EFCE16B01F012FD02F075
:100C100039FC1A4901F0FAFC02F034FC0A22296876
:100C200001F07DFD02F02EFC154901F0EFFC02F011
:100C300029FC696801F0FDFC00F0FAFD114B00226F
:100C40001860034B1A7071E70BB0BDE8F08F00BF5E
:100C5000800500201000002004010020DC530A0859
:100C6000EC530A0813530A081D530A08F80500201C
:100C70001F530A08540100202400002024530A08AE
:100C800043530A08D005002051010020F40500203C
:100C900020000020AC000020900500201C00002057
:100CA00020540A0830540A08F0B5374B00251D605F
:100CB000364B85B01D70364E00F0C2FD2021354800
:100CC00000F0D8F9344C354800F0F5FA304600F021
:100CD00085F822463249304602F014FE00F0A8FDA5
:100CE000304B314F186000F0A3FD304B0A261860DE
:100CF0004FF0FF3302930B238DE848002A460C2364
:100D0000294638462A4D00F093FB224629493846A9
:100D100002F0F8FD3146284600F07DFA264E2846BE
:100D2000264D2246264902F0EDFD3146284601F0C7
:100D30000CFF05F1100001F087FB314605F128009A
:100D400001F003FF314605F13C0001F0FEFE2846AC
:100D50001C4D22461C4902F0D5FD3146281D01F0EC
:100D6000F4FE2846194D2246194902F0CBFD1949D7
:100D7000284601F0EAFE22462846174905B0BDE89C
:100D8000F04002F0BFBD00BF9005002082050020AA
:100D900054010020F0050020A80000205001002090
:100DA0003D010A08D0050020AC000020F405002019
:100DB00098050020B7000A0827550A0804010020FA
:100DC000DD110A08F8050020C7000A08C005002048
:100DD000B9000A0864540A08BD2A0A0810B5044676
:100DE00002F0FCF9204610BD38B50446154601F066
:100DF0000DFC0549204601F009FC29462046BDE8C6
:100E0000384001F016BC00BF24560A0838B5044625
:100E1000154601F0FBFB0549204601F0F7FB29468A
:100E20002046BDE838400A2201F079BC24560A0861
:100E300000F006BD2DE9F04F0D461E464FF0FF3382
:100E40008FB00446136000212846174601F00AFFC0
:100E5000D5F8388060B92968B8F1000F02D01FFAC0
:100E600088F200E050220023204602F0D9F914E075
:100E7000744B0DF1240E05F1140C0893BCE80F001F
:100E8000AEE80F00DCF800301FFA88F28EF8003070
:100E900008A90023204602F08BF8003018BF01207B
:100EA00018B9204602F06AF8C8E01899204601F007
:100EB000ADFB6549204601F0A9FBA96A204601F077
:100EC000A5FB6249204601F0A1FB61492046614A29
:100ED000FFF78AFF0021284601F0C4FE20B92A68E6
:100EE0005D492046FFF780FF05F13C0800214046A0
:100EF00001F0B8FE08B96A6C05E05849189804F08A
:100F00003BF8024618B956492046FFF77FFF5EB10D
:100F1000316849B17268204612B1FFF765FF01E000
:100F200001F087FB0836F3E7204601F076FB204608
:100F300001F059FF0021404601F094FE18B9E96B19
:100F4000204601F076FB04F11C084FF4806200217A
:100F5000404603F0E0FF00F06BFC0026814635467A
:100F600000F066FC41F2883A204601F0CBFFD8B190
:100F7000204601F07CFF834600F05AFC40F2FE332D
:100F80009D42814603D8631983F81CB00AE040F201
:100F9000FF339D4206D1002384F81B34204601F024
:100FA000EDFF01260135DFE76319187700F040FCFB
:100FB000C9EB000B26B9D34502D8C82000F0AEFE1D
:100FC000204602F09CF818B1D34501D8002ECBD0B2
:100FD000204601F0D3FF4146684601F0B6FD0C23E0
:100FE0000922694604A801F061FE1E4908A801F023
:100FF000ACFD08A9684601F056FE044608A801F0B9
:101000005DFD631C14D03D1D1749284601F0CAFD43
:10101000221D694608A801F071FE08A9284601F0C2
:10102000FFFD08A801F04AFD049803F057FF38605F
:1010300004A801F043FD684601F040FD0FB0BDE893
:10104000F08F00BF8C550A0820560A08F2540A088F
:1010500004550A08FE540A080F550A081F530A08C7
:1010600014550A0823550A0827550A080368C9B207
:101070009B681847016070470078704738B50D4687
:10108000144602F0E5FB294601F0AEF902F0E0FB60
:101090002146FFF7EBFF02F0DBFB01F0ACF9014B5F
:1010A000186038BD1006002006220168FFF7E6BF71
:1010B00008B5FFF7F9FFBDE808404FF47A7000F07B
:1010C0002DBE000038B50C46154602F0C1FB214686
:1010D00001F08AF902F0BCFB2946FFF7C7FF02F0D6
:1010E000B7FB01F088F90C4B1860142000F016FED5
:1010F00002F0AEFB2146022201F06DF902F0A8FBDE
:1011000003685B699847040202F0A2FB03685B690D
:101110009847204338BD00BF100600200022016818
:10112000FFF7D0BF38B50C46154602F091FB2146BB
:1011300001F05AF902F08CFB2946FFF797FF02F005
:1011400087FB01F058F90C4B1860142000F0E6FD05
:1011500002F07EFB2146022201F03DF902F078FB0D
:1011600003685B699847040202F072FB03685B69DD
:101170009847204338BD00BF1006002005220168B3
:10118000FFF7D0BF38B50C46154602F061FB21468B
:1011900001F02AF902F05CFB2946FFF767FF02F035
:1011A00057FB01F028F9094B1860142000F0B6FD38
:1011B00002F04EFB0122214601F00DF902F048FB3E
:1011C00003685B699847C0B238BD00BF10060020B5
:1011D00007220168FFF7D6BF00F032BB10B5044606
:1011E000006908B100F072FD204610BD30B5002442
:1011F0000025C0E902450023437083700278591C22
:10120000DBB29A4206D9026902EBC303C3E9004587
:101210000B46F3E730BD10B504460170C80000F07E
:101220004DFD206100B920702046FFF7DFFF20460A
:1012300010BDF8B51F4603690446164643B38578CA
:1012400000F10801D1E9000103EBC505D5E9002350
:1012500002F036FDC4E90201C5E90067A5782369FB
:10126000D4E9020103EBC503D3E9002302F02AFD10
:1012700001352278EDB2954208BF0023A57008BF62
:10128000A3706378C4E902019A4284BF013363709A
:10129000F8BD10B50446407840B102F05FFE02464A
:1012A0000B46D4E9020102F0E9FF10BD0020002145
:1012B00010BD00F0C5BA704738B515460C4602F0AF
:1012C000C7FA362101F090F802F0C2FA0368294605
:1012D0009B68984702F0BCFA0368210A9B6898470C
:1012E00002F0B6FA0368E1B29B68984702F0B0FAE0
:1012F000BDE8384001F07FB806224FF48041FFF787
:10130000DBBFFE224FF4A841FFF7D6BF10B50C4655
:1013100002F09EFA362101F067F802F099FA0368AC
:1013200021469B68984702F093FA002101F05FF88C
:1013300002F08EFA0222362101F04DF840F2E93433
:1013400002F086FA03681B699847012806DC013C15
:10135000A4B21CB1012000F0E1FCF1E702F078FA40
:1013600003685B699847044602F072FA0368240236
:101370005B69984704F47F44C0B2204310BD00006D
:1013800008B50221FFF7C2FFC0F30F1003F04AFABD
:10139000014903F053FB08BD0000484438B504215F
:1013A000FFF7B4FF0446C0F30F2003F03FFA0546F1
:1013B000E0B202F0D3FD0022044B02F035FE03F050
:1013C0002BF9294603F07EF938BD00BF0000703FBD
:1013D0002029A8BF202138B50C460C210546FFF76F
:1013E00095FFC4F1200420F01F0081B2E4B2214334
:1013F0002846BDE838400C22FFF75EBF38B50D46E1
:101400000C210446FFF782FF00F040039BB243B17A
:101410004DB14FF6BF710C2201402046FFF74CFF43
:1014200001E0184638BD012038BD00F009BA0000BF
:1014300030B50F4D0024056091424FF00105446026
:1014400080F8505007D10F2343620D23836280F848
:101450004F500C2303E080F84F40416282620363E7
:10146000039BC362049B4363059B836330BD00BF42
:1014700030550A08F8B504460E46008E002117467E
:1014800002F0CDF994F84F3023B13146134801F002
:10149000A9FA19E00121208D02F0C1F9072546FAC9
:1014A00005F1606A11F0010118BF012180B202F05C
:1014B000B6F90021208D02F0B2F90121208D02F051
:1014C000AEF915F1FF35EAD2208E012102F0A7F91D
:1014D0003846BDE8F84000F0A3B900BFDC0A0020A0
:1014E00038B504460D46808D012102F098F9294651
:1014F0002046BDE838401E22FFF7BCBF70B5044649
:101500000D4616460021808D02F089F932462946A3
:101510002046BDE87040FFF7ADBF4FF48762012160
:10152000FFF7ECBF90F84B1090F84A301E220B43A7
:1015300090F84C1043F008031943FFF7DFBF002277
:1015400080F84A20FFF7EEBF90F84D101E2241F0C0
:10155000020180F84D10FFF7D1BF90F84E301E22E7
:101560001943FFF7CBBF3F2938B505460C4617D8BE
:101570000121FFF7F2FF95F84910284641F050018C
:1015800041EA24111E22C9B2FFF7B8FF04F00F018F
:101590002846BDE838401E2241F07001FFF7AEBF7B
:1015A00038BD072938B505460C460BD80121FFF791
:1015B000D4FF44F068012846BDE838401E22C9B275
:1015C000FFF79CBF38BD10B504460121FFF7C5FFEA
:1015D00094F848102046BDE810401E22FFF78EBF49
:1015E00038B50446406B431C0FD094F8503063B1BB
:1015F000002180B202F013F9282000F08FFBA08EAA
:10160000012102F00CF9282000E0322000F086FBD6
:101610002046FFF7D8FF216C2046FFF7A4FF616C3E
:101620002046FFF7BEFF0223042584F84A3000233A
:1016300084F84C30204684F84B50FFF773FF204667
:1016400084F84D50FFF780FF2046BDE83840FFF793
:1016500064BF00002DE9F04104460E46008E0121D2
:101660001F469046069D02F0C9F80121208E02F027
:10167000D6F80121A08C02F0C1F80121A08C02F063
:10168000CEF80121208D02F0B9F80121208D02F061
:10169000C6F894F84F3073B14D4801F03DF901217F
:1016A0004B4801F03EF90321494801F03DF9202162
:1016B000474801F083F90121A08D02F09FF8012134
:1016C000A08D02F0ACF8606B411C07D0012180B204
:1016D00002F094F80121A08E02F0A1F8A06B421C48
:1016E00007D0012180B202F089F80021208F02F09A
:1016F00096F8012E10D10823236150236361002343
:10170000A3614FF0FF33E3612362142384F8483070
:10171000A660E660302324E0022E0ED11023236160
:10172000282363610023A3614023E3614FF0FF336B
:101730002362A660E660142310E0032E03D04FF06E
:10174000FF30BDE8F0811023236163610022E36173
:1017500020232362A660E660A261152384F8483046
:10176000382384F84E30B8F1000F0FD194F8483088
:10177000C4F83C8043F0080384F848307B1C84F8AC
:1017800049801ED06E1C08BF02250CE0B8F1010F85
:10179000D5D10423781CC4F83C8084F8493005D0A6
:1017A000691C08BF03253F2F03D9C8E76B1C0DD068
:1017B0003227204627646564FFF712FF0020BDE84A
:1017C000F0816A1C08BF02252827F2E70325EFE70E
:1017D000DC0A002010B444698C420DDDC4689442D8
:1017E0000ADD063250F8223010BC194461F07F0146
:1017F0001E22C9B2FFF782BE10BC704700F020B8AD
:1018000008B5024B1B681B6B019308BDD00106088D
:1018100008B5024B1B685B68019308BD9C01060874
:1018200008B5024B1B68DB68019308BD9C010608E4
:1018300008B5024B1B685B69019308BD9C01060853
:1018400008B5024B1B681B68019308BDB001060870
:1018500008B5024B1B689B68019308BDB0010608E0
:1018600008B5024B1B68DB68019308BDB001060890
:1018700008B5024B1B681B69019308BDB00106083F
:1018800008B5024B1B68DB6C019308BDAC01060870
:1018900008B5024B1B685B6D019308BDAC010608DF
:1018A00008B5024B1B689B6D019308BDAC0106088F
:1018B00008B5024B1B68DB6D019308BDAC0106083F
:1018C00008B5024B1B681B6E019308BDAC010608EE
:1018D00008B5024B1B685B6E019308BDAC0106089E
:1018E00008B5024B1B689B6E019308BDAC0106084E
:1018F00008B5024B1B68DB6E019308BDAC010608FE
:1019000008B5024B1B681B6F019308BDAC010608AC
:1019100008B5024B1B685B6F019308BDAC0106085C
:1019200008B5034B1B68D3F88030019308BD000055
:10193000AC01060808B5024B1B681B68019308BD83
:10194000BC01060808B5024B1B685B68019308BD23
:10195000BC01060808B5024B1B689B68019308BDD3
:10196000BC01060808B5024B1B68DB68019308BD83
:10197000BC01060808B5024B1B681B69019308BD32
:10198000BC01060808B5024B1B681B6A019308BD21
:10199000BC01060808B5024B1B681B6B019308BD10
:1019A000BC01060808B5024B1B685B6C019308BDBF
:1019B000BC01060808B5024B1B681B68019308BDF3
:1019C000B401060808B5024B1B689B68019308BD6B
:1019D000B401060808B5024B1B68DB68019308BD1B
:1019E000B401060808B5024B1B681B69019308BDCA
:1019F000B401060808B5024B1B685B69019308BD7A
:101A0000B401060808B5024B1B68DB69019308BDE9
:101A1000B401060808B5024B1B681B6A019308BD98
:101A2000B401060808B5024B1B685B6A019308BD48
:101A3000B401060808B5024B1B689B69019308BDF9
:101A4000C401060808B5024B1B685B6A019308BD18
:101A5000C401060808B5024B1B689B6A019308BDC8
:101A6000C401060808B5024B1B68DB6A019308BD78
:101A7000C401060808B5024B1B681B6B019308BD27
:101A8000C401060808B5024B1B685B6B019308BDD7
:101A9000C401060808B5024B1B689B6B019308BD87
:101AA000C401060808B5024B1B681B6C019308BDF6
:101AB000C401060808B5024B1B681B68019308BDEA
:101AC000D801060808B5024B1B685B68019308BD86
:101AD000D801060808B5024B1B681B69019308BDB5
:101AE000D801060808B5024B1B685B69019308BD65
:101AF000D801060808B5024B1B689B69019308BD15
:101B0000D801060808B5024B1B68DB69019308BDC4
:101B1000D801060808B5024B1B681B6A019308BD73
:101B2000D801060808B5024B1B685B6C019308BD21
:101B3000C001060808B5024B1B689B6C019308BDE9
:101B4000C001060808B5024B1B681B6D019308BD58
:101B5000A801020808B5024B1B685B68019308BD29
:101B6000A401060808B5024B1B685B69019308BD18
:101B7000A401060808B5024B1B689B69019308BDC8
:101B8000A401060808B5024B1B68DB6C019308BD75
:101B9000A401060808B5024B1B685B6D019308BDE4
:101BA000A401060808B5034B1B68D3F890300193D5
:101BB00008BD0000A401060808B5034B1B68D3F854
:101BC0009C30019308BD0000A401060808B5024B33
:101BD0001B681B68019308BDCC01060808B5024BC1
:101BE0001B689B68019308BDCC01060808B5024B31
:101BF0001B685B69019308BDCC01060808B5024B60
:101C00001B681B6A019308BDCC01060808B5024B8E
:101C10001B68DB6B019308BDCC01060808B5024BBD
:101C20001B685B68019308BDC801060808B5024B34
:101C30001B689B68019308BDC801060808B5024BE4
:101C40001B68DB68019308BDC801060808B5024B94
:101C50001B681B69019308BDC801060808B5024B43
:101C60001B685B69019308BDC801060808B5024BF3
:101C70001B689B69019308BDC801060808B5024BA3
:101C80001B68DB69019308BDC801060808B5024B53
:101C90001B681B6A019308BDC801060808B5024B02
:101CA0001B681B6B019308BDC801060808B5024BF1
:101CB0001B685B6B019308BDC801060808B5024BA1
:101CC0001B681B68019308BDA001060808B5024BFC
:101CD0001B685B68019308BDA001060808B5024BAC
:101CE0001B689B68019308BDA001060808B5024B5C
:101CF0001B685B6A019308BDA001060808B5024B8A
:101D00001B68DB6A019308BDA001060808B5024BF9
:101D10001B681B6B019308BDA00106080021FFF79B
:101D200021BF10B5836804460BB901F0F2FDC3680A
:101D30009847A3681BB103222146204698472046B6
:101D4000BDE81040102101F0E2BD7047002070474F
:101D500010B50446102101F0DAFD204610BD08B58B
:101D600008B1FFF7F5FF08BD10B58368044613B14D
:101D7000032201469847204610BD002202604FF61C
:101D80009C72828010B5B1F9044084808A80026818
:101D90000C6804600A6010BD10B504460068FFF7C7
:101DA00095FF204610BD38B5C468F4B12378022BE6
:101DB00003D104F10C00FFF7EFFF656835B1284649
:101DC000FFF7D2FF1021284601F0A1FDA56835B12B
:101DD0002846FFF7C9FF1021284601F098FD20464C
:101DE000BDE83840142101F092BD38BD38B5046813
:101DF00005467CB16368013B63605BB9236820469C
:101E00009B689847A368013BA3601BB923682046E1
:101E1000DB689847284638BD13B5044691E80500AD
:101E200000234B600B602060626001A80193009367
:101E3000FFF7DCFF204602B010BD0B68036013B152
:101E40005A6801325A607047F7B50C4606460F468D
:101E500054F8043B02AD45F8083D214601A8FFF7C0
:101E6000ECFF29463046FFF7D7FF01A8FFF7BEFF7A
:101E70002046FFF7BBFF3846082101F048FD3046F9
:101E800003B0F0BD13B50B46044603C88DE803004C
:101E900093E8030084E803009DE8030083E803005F
:101EA00002B010BD38B500230446036010200D4673
:101EB000FEF7F5F828B1012343608360024BC5604B
:101EC00003602060204638BD48550A08826810B576
:101ED0000AB901F01EFDC368BDE81040184708B5F7
:101EE000006800F11001FFF7F1FF08BD826810B52E
:101EF0000AB901F00EFDC368BDE81040184708B5E7
:101F0000006800F11001FFF7F1FF08BD38B50023AC
:101F100083608B6804460D462BB102229847EB681C
:101F2000E360AB68A360204638BD0000F0B589B01F
:101F300004686846FFF721FF4FF0020200238DF886
:101F40000830D4E84F3F002B03D1C4E8412F0029CB
:101F5000F7D102D08DF8083063E014F10C0503D0FE
:101F600069462846FFF709FFBFF35F8F01236370BF
:101F7000BFF35F8F04F10803002053E8006F43E8CC
:101F80000002002AF9D1BFF35F8F002E49D0FFF77E
:101F9000F9FD20B129463046FFF798FF3AE0314677
:101FA00002A8FFF7B3FFE068B4F9105008B102F0DF
:101FB000F5FF06901020ADF81C50FEF770F80546AE
:101FC000E8B1002787601820FEF769F8044688B159
:101FD0000146876002A8FFF755FF049BA268A36033
:101FE000059B0492E26806A9E36004F110000592E3
:101FF000FFF7C3FE0D4B2C60EB600D4BAB6006A8EA
:10200000FFF7CAFE02A8FFF7AFFE002229460948E3
:10201000FFF7C0FD3046FFF7A7FE1021304601F064
:1020200076FC6846FFF7B8FE09B0F0BDDF1E0A086F
:1020300055210A08231D0A082DE9F04F8BB00646EA
:102040000F46904699469DF850A0FFF7CFFD07AD8B
:10205000834630BB4FF62E73059005A92846ADF890
:102060001830FFF78AFE1420FEF719F8044658B11D
:102070000223037001234370C0F804B0C0F808B015
:1020800029460C30FFF779FE3046214640F8044BD4
:10209000FFF708FF2846FFF77FFE05A8FFF77CFE45
:1020A00052E000240C2314206C60AC600793FDF711
:1020B000F6FF014618B1047044704460846004A8BF
:1020C0000391FFF7EFFE224B08200893FDF7E7FF8F
:1020D000044628B1039B04A940F8043BFFF7ADFE7A
:1020E00000955FFA8AF34A46414638460994FFF75D
:1020F00085FD20B9039B5B7803F0FF0283B1039B4E
:1021000004A906A80593FFF798FE05A93046FFF736
:1021100083FE06A8FFF76AFE04A8FFF767FE13E038
:102120004FF69C7305A903A80592ADF81830FFF788
:10213000FDFE05A8FFF730FE05A80999FFF784FE0C
:1021400006A8FFF753FEDAE730460BB0BDE8F08F84
:10215000C5220A08022AF8B5044606D0032A17D079
:10216000012A22D10B6803601FE018200E68FDF7DA
:1021700096FF054650B13146FFF7C8FE3069B6F903
:10218000147008B102F00AFF2861AF8225600CE0EC
:10219000046854B104F11000FFF7FEFD2046FFF77C
:1021A000E3FD1821204601F0B2FB0020F8BD38B550
:1021B000002383608B6804460D462BB102229847AA
:1021C000EB68E360AB68A360204638BD022A70B5B7
:1021D000044606D0032A11D0012A18D10B680360E7
:1021E00015E014200E68FDF75AFF054620B1314670
:1021F000FFF7DDFF337C2B74256008E0046834B101
:102200002046FFF7B1FD1421204601F080FB00209D
:1022100070BD0000F0B50C46BFF35F8F87B00023A0
:1022200050E8006F40E80032002AF9D1BFF35F8F19
:10223000002E3FD01846FFF7A5FC074620B12146E7
:102240003046FFF753FE2EE0314601A8FFF7AFFFFF
:10225000237810208DF81430FDF721FF0546D0B10A
:1022600087601420FDF71BFF044678B187600146A4
:1022700001A8FFF707FE039BA268A360049B0392DB
:10228000E268E3609DF81430049223740A4B2C60DA
:10229000EB600A4BAB6001A8FFF766FD0022294600
:1022A0000748FFF777FC3046FFF75EFD1021304608
:1022B00001F02DFB07B0F0BDFF1E0A08CD210A0872
:1022C000231D0A0830B5044685B00D466846114600
:1022D000FFF7BAFD7CB124B228460DB102F05EFED4
:1022E000029002A96846ADF80C40FFF71FFE02A855
:1022F000FFF752FD1DE04FF0010200988DF80840F5
:10230000D0E84F3FA34203D1C0E8412F0029F7D1C5
:1023100002D08DF808300CE010F10C014FF00103F1
:1023200018BF0373BFF35F8F043000F8033CFFF75F
:1023300071FF01A8FFF75AFD05B030BD7047F8B531
:10234000064615460C468F18BC4206D0336814F872
:10235000011B9B6830469847F6E72846F8BD0022E7
:10236000007CFFF7ADBA0021007CFFF7B1BA002175
:10237000007CFFF7B5BA0021007CFFF7B9BA002155
:10238000007CFFF7BDBA10B50446142101F0BFFA76
:10239000204610BD10B5044608464FF47A73A3607A
:1023A000044B0021207461602360FFF7B9FA2046D6
:1023B00010BD00BF64550A0800231A461946007C68
:1023C000FFF75EBA13B50024007C0094FFF760FAB3
:1023D000C0B202B010BD0123D2B2C9B2FFF7F2BF42
:1023E0000022007CFFF75CBAC9B2FFF7F9BF0022F8
:1023F000007CFFF75DBA0121FFF7F9BF0021007CE7
:10240000FFF786BA704710B50446182101F07FFA2D
:10241000204610BDF8B50F4600F10806051D002442
:1024200016F8011D0A22384600F037F9AE4204447E
:1024300007D0002CF4D02E21384600F0EBF80444ED
:10244000EEE72046F8BD000010B50446044B11220B
:1024500040F8043B002102F05EFD204610BD00BFA5
:102460008C550A080346074A10B543F8042B01F1BE
:10247000100251F8044B914243F8044BF9D10A7809
:102480001A7010BD8C550A08024A4160026004228D
:10249000027570478C550A0810B59DF8084044EA4B
:1024A000032343EA024242EA0161042341600375C7
:1024B00010BD000037B5044D05609DF8185000951B
:1024C000FFF7EAFF03B030BD8C550A08014A024B02
:1024D0001A6070470E560A081406002000231A4698
:1024E0004068FFF79BBB002202214068FFF7A6BBB4
:1024F000002211464068FFF799BB00221146406850
:10250000FFF7A4BB00231A4619464068FFF7A6BB95
:1025100000231A4619464068FFF7A8BB002281F045
:1025200001014068FFF7AABB00224068FFF7B6BB75
:10253000002211464068FFF7B9BB002211464068EF
:10254000FFF7A4BB70B516468EB0044608A8FFF787
:102550007BFF1122002103A802F0DDFC304602F0CF
:1025600038FD00250A4B009581B25B6803AA30460E
:10257000FFF7E0FA20B129462046FFF785FF03E088
:1025800003A92046FFF76EFF20460EB070BD00BFC6
:10259000980A0020034B044A04280CBF1046184632
:1025A000704700BF18060020980A0020024B034A1B
:1025B0001A6000225A6070471806002080560A08E8
:1025C000F8B506460D468F180024BD420CD033687E
:1025D00015F8011B9B6830469847002801DB04442E
:1025E000F3E7002C08BF04462046F8BD70B5054649
:1025F0000C46084649B102F0ECFC2B680246214625
:102600002846BDE87040DB68184770BD08B5FFF785
:10261000EDFF08BD03689B68184738B50D210546D6
:10262000FFF7F8FF0A2104462846FFF7F3FF20448E
:1026300038BD38B50546FFF7D9FF04462846FFF7F1
:10264000ECFF204438BD012A98BF0A2230B50B4662
:102650008BB000218DF824100DF12304B3FBF2F5AB
:1026600005FB1233DBB2092B94BF30333733DBB2B7
:10267000214604F801392B46002DEFD1FFF7B6FFB4
:102680000BB030BD10B422B90368C9B29B6810BC4E
:102690001847D2B210BCFFF7D6BFFFF7F3BF38B56B
:1026A0000546FFF7EFFF04462846FFF7B6FF204434
:1026B00038BD38B50546FFF7E5FF04462846FFF765
:1026C000ACFF204438BD38B50546FFF7DBFF0446B4
:1026D0002846FFF7A2FF204438BD2DE9F041074608
:1026E0000E4615462AB9BDE8F0410368C9B29B6899
:1026F00018470A2A02D1002901DA04E0D2B2BDE863
:10270000F041FFF7A0BF2D21FFF784FF2A460446C2
:1027100071423846FFF797FF2044BDE8F08138B595
:102720000546FFF7DAFF04462846FFF776FF204408
:1027300038BD00002DE9F84319468046104617467B
:102740001E469DF8205001F009FF08B1474912E0EC
:1027500026F000444FF0FF32454B3846214601F049
:10276000FDFE68B94FF0FF32414B3846214601F07B
:10277000D7FE28B93F494046FFF738FFBDE8F88348
:102780004FF060423C4B3846314601F0DDFE08B167
:102790003A49F0E74FF06042394B3846314601F094
:1027A000B5FE0028F4D1002200233846314601F05E
:1027B000ADFE38B12D214046FFF72CFF06F1004653
:1027C000044600E004462F494FF0000900205FFA5C
:1027D00089F39D4206D900222B4B01F04FFD09F1F0
:1027E0000109F4E73A46334601F06CFA0F46064613
:1027F00001F0F2FE0A22014681464046FFF723FF20
:1028000004447DB3484601F099FB02460B4630462E
:10281000394601F055FA06460F4640461B49FFF778
:10282000E5FE0444184B00223046394601F0FCFB1B
:102830000F46064601F0A8FE0A22014681464046A0
:10284000FFF74BFF0444484601F088FB02460B4665
:102850003046394601F034FA013D15F0FF050646D1
:102860000F46DFD12046BDE8F88300BFAC560A080A
:10287000FFFFEF7FB6560A08FFFFEF41B0560A0888
:10288000FFFFEFC10000E03F00002440B4560A08FB
:102890009DF800100091FFF74DBF37B59DF8181057
:1028A00005460091FFF746FF04462846FFF7B5FEB0
:1028B000204403B030BD10B50446FFF755FA20465A
:1028C00010BD0000034800238360034A034901F060
:1028D00019B800BF20060020A8000020B7280A0869
:1028E000704710B50446102101F011F8204610BDC4
:1028F00070B504460E46074B0025036040F80C5F98
:10290000FEF77EFF30462671FFF77CF8A560204673
:1029100070BD00BFC4560A084FF6FF710079FFF77B
:1029200049B80079FFF74EB80079FFF753B80000B7
:10293000054A0023995C814202D00133082BF9D16A
:10294000581CC0B2704700BFCC560A08400830B5CA
:10295000186000241868E5B2884206D90134082CB2
:1029600002D040081860F5E70725024B5B5D137045
:1029700030BD00BFCC560A0870B5044602FB01F515
:1029800088B006791422002103A802F0C4FA0B23B0
:1029900003A930460022ADF80C30FFF743F802AB34
:1029A0000DF1070229460498FFF7D0FF20799DF822
:1029B0000710FFF717F8029808B070BD38B5044645
:1029C000A56808464DB1FFF7B3FF012225FA00F1D3
:1029D0002046BDE83840FFF7CFBF2079BDE838403A
:1029E000FFF700B808B50079FFF704F8C0B208BDDA
:1029F0000079FFF70FB800002DE9F14F80460D4632
:102A000017461E46002200234046294601F07EFD5F
:102A100020B12D23337005F1004501360023012438
:102A20000A22D9B28F4202D954430133F9E7204632
:102A300001F094FA42462B4601F0F6FA82468B46A4
:102A400002F0B0F88046894601F0B8FA02460B461B
:102A50005046594601F034F90022174B01F06AFD47
:102A600018B118F1010849F10009E51722462B4673
:102A70004046494602F07EF801230A22314600F022
:102A8000D4FDAFB1304602F0A4FA2E233354013006
:102A9000064422462B464046494602F06BF83B4628
:102AA000104631460A2201B0BDE8F04F00F0BDBD2E
:102AB00001B0BDE8F08F00BF0000E03F10B5044654
:102AC0000068FFF703F9204610BD10B50446006802
:102AD00008B1FFF7FBF800232360A360636010BD1B
:102AE00038B504460D4600680131FFF7F7F810B11C
:102AF00084E82100012038BD10B50368044613B1F5
:102B000043688B4207D22046FFF7EAFF20B1A36853
:102B10000BB922681370012010BD70B50E46114626
:102B200004461546FFF7E8FF18B92046FFF7CDFF2A
:102B300009E02A463146A560206802F0E1F92268E2
:102B4000A3680021D154204670BD38B50023044647
:102B500003604360836003730D4639B1084602F099
:102B600038FA294602462046FFF7D7FF204638BDEF
:102B7000884210B50B46044607D0096819B19A6817
:102B8000FFF7CBFF01E0FFF7A0FF204610BD10B517
:102B9000044600230360436083600373FFF7E8FF8C
:102BA000204610BD38B505460C4641B1084602F036
:102BB00010FA214602462846FFF7AFFF01E0FFF773
:102BC00084FF284638BD10B504468AB01946002354
:102BD000104623606360A36023739DF8302001AB2F
:102BE000FFF70AFF01A92046FFF7DCFF20460AB0E5
:102BF00010BD70B504460E4609B9002070BD6AB11B
:102C00008368D5182946FFF777FF0028F5D020689C
:102C1000A3683146184402F0B9F9A560012070BDDF
:102C20008A680968FFF7E5BF10B58A680968044635
:102C3000FFF7DFFF10B92046FFF747FF204610BD22
:102C400038B504460D4641B1084602F0C2F929469E
:102C500002462046FFF7CDFF10B92046FFF735FFAB
:102C6000204638BD08B582680B4612B919B9012053
:102C700008BD11B90368187802E0006802F07CF919
:102C8000B0FA80F0400908BD10B58368934207D9B7
:102C900004680968A01802F0A4F908B1001B10BD6F
:102CA0004FF0FF3010BD0022FFF7EEBF2DE9F041DD
:102CB0001C469A4288BF13460E46154688BF2546D5
:102CC0000D4988BF1C460746FFF73FFFB1688D429C
:102CD0000FD88C4228BF0C463368002213F80480BA
:102CE0001A55316838462944FFF75CFF336803F80A
:102CF00004803846BDE8F08127550A0810B504461F
:102D00008B68FFF7D3FF204610BD00000EB4FFB55F
:102D100009AC54F8047B054623463A46052102A82F
:102D20000194FEF7E3FF06460B492846FFF70DFF27
:102D300031462846FFF7E0FE286830B123463A4680
:102D4000711C0194FEF7D2FFA860284604B0BDE8CC
:102D5000F04003B0704700BF27550A0810B504467D
:102D6000084611461A460023FEF704FF064B0022D0
:102D70001A704FF6FF7258809A801A689B882260FA
:102D8000A380204610BD00BF300600204FF6FF7222
:102D9000034B0020187058809A80FEF7DBBE00BFFE
:102DA0003006002037B502AC036804F8011DDD6B66
:102DB000012247F230532146A84703B030BD10B47A
:102DC0000368DC6B47F23053A44610BC604737B54C
:102DD00002AC036804F8011DDD6B21461346012295
:102DE000A84703B030BD704770470020704710B54A
:102DF0000446142100F08BFD204610BDFDF751B9AB
:102E000010B5044603689B689847A368013BA3601C
:102E10002BB923682046BDE81040DB68184710BD79
:102E200070B5044606464D69044B8C3544F8043BA6
:102E30000FCD0FC42B683046237070BD8C550A0827
:102E400010B543690446B3F88620B3F884309A423B
:102E500005D06269B2F884301344187910BD036854
:102E60001B6998470028F4D14FF0FF3010BD10B512
:102E700043690446B3F88620B3F884309A4208D0F8
:102E80006269B2F88430591CA2F88410134418798E
:102E900010BD03681B6998470028F1D14FF0FF303F
:102EA00010BDF8B543691746B3F88620B3F88430EF
:102EB00005469A420E4606D103681B69984710B929
:102EC0004FF0FF3414E069693046B1F88430B1F84E
:102ED00086401944E41ABC4228BF3C4604312246CD
:102EE00002F00EF86A69B2F884302344A2F8843004
:102EF0002046F8BD42690023A2F884304269A2F856
:102F00008630704738B542690446B2F886301BB146
:102F1000B2F884209A420CD02069FFF73BFB03688B
:102F2000DB68984718B363691868FEF70BFD18B99A
:102F30001DE0FFF7DFFFEFE76069B0F886107F293B
:102F400015D8051DC1F18002002329440068FEF751
:102F500011FD00280BDD6369B3F886200AB9A3F8D8
:102F600084206269B2F886301844A2F8860062694B
:102F7000B2F88630B2F88400181A38BD38B5436903
:102F800004461868FEF7DEFC18B163691868FEF79E
:102F9000F9FC6569FEF7FEFC2860606911220021DA
:102FA0008C3001F0B8FF2046BDE83840FFF7A2BFE3
:102FB0002DE9F0411F4603688AB0DB6A06460C46DD
:102FC000154698473846FFF7E5FA0368DB689847E7
:102FD000002856D000972B46062201210220D6F861
:102FE0001480FEF7B7FC2023C8F8000000270293E6
:102FF000736903971B6801200193234B02AA009376
:1030000022493B46FEF79EFD73691868FEF79AFC5D
:10301000002836D03046FFF76DFF0223ADF80830A8
:103020002B0A8DF80A30E3794FF4FA508DF80C3002
:10303000A3798DF80B508DF80D3063798DF80E3033
:1030400014F8043F8DF80F30FEF76CFD73690546E8
:10305000102202A91868FEF785FC80462846FEF774
:1030600061FD0FCC75698C350FC523682B70B8F1E5
:10307000000F05D033683046DB6A9847384600E0D9
:1030800001200AB0BDE8F08143570A083C570A08FE
:1030900010B5436904461868FEF754FC08B90020CF
:1030A00010BD2069FFF776FA0368DB6898470028AF
:1030B000F5D063691868FEF73DFCB0FA80F040096E
:1030C00010BD2DE9F3410025456004460E46174624
:1030D0009846FFF7DDFF60B160690195CDF800808B
:1030E0002B463A4631460068FEF75CFC002803DABE
:1030F00001E04FF0FF30606002B0BDE8F08138B50C
:103100000446FFF7C5FF00BB6369B3F88610B3F848
:103110008420914219D11868FEF714FC28B1636924
:103120001868FEF707FC012801D000250EE023688F
:1031300020461B699847002814BF0125002505D1AA
:1031400023682046DB6A984700E00125284638BD01
:1031500008B5FFF79DFF003018BF012008BD10B56E
:10316000044600230160A0F88430A0F8863088303F
:10317000FFF76AF9204610BD4FF47A7270B582608D
:10318000144A002343600260436183610446A02027
:103190000E46FCF784FF054610B13146FFF7DFFF0E
:1031A0001420FCF77CFF034628B1012242608260B4
:1031B000094A05610260A0696561A36128B143689D
:1031C000013B43600BB9FFF71BFE2046FFF792FE61
:1031D000204670BDF8560A08DC560A0810B50446A9
:1031E000FEF7D8FB01462046FFF7C6FF204610BD7C
:1031F00010B504460068FEF7A5FB10B12068FEF785
:10320000C1FB204610BD10B504692046FFF7F0FF52
:1032100024B12046BDE81040FCF743BF10BD0000BC
:103220002DE9F0431F4603688FB0DB6A06460D4662
:10323000904698471348FFF760F900B302A8FFF7DC
:1032400003F9284601F0C5FE002481B200943B46F4
:1032500003AA2846FEF76EFC80B9336809ADD3F89F
:103260002090094B03AC08930FCC0FC5236842464E
:103270002B7008A93B463046C84700E020460FB0F7
:10328000BDE8F083180600208C550A08024B1A6826
:10329000024B1A60704700BF3C0000203806002037
:1032A00070474174704708B5007CFEF7FBFB20EACD
:1032B000E07008BD08B5007CFEF7CCFB20EAE070AA
:1032C00008BD08B5007CFEF7D5FB30EA200028BF1A
:1032D0004FF0FF3008BD08B5007CFEF7C3FB30EAB5
:1032E000200028BF4FF0FF3008BD007CFEF7CABBAE
:1032F00010B50446142100F00AFB204610BD70B53D
:10330000457C04460E4625B9007CFEF7CBFB002821
:1033100005DD3146207CBDE87040FEF793BB2846B2
:1033200070BD000010B504460846114600226260D8
:103330004FF47A72A260054A2074226001226274FE
:103340001A46FEF777FB204610BD00BF88570A08D3
:10335000007CFEF79FBB000038B50C4D296811F0CA
:10336000010411D12846FCF79EFE68B1084A2146A7
:10337000084B0948FFF7D6FF2846FCF799FE074A95
:103380000749054800F0BEFA034838BDD4060020BE
:10339000D8060020500600203C060020A80000208F
:1033A000A1320A0841747047704708B50021007CBB
:1033B000FEF7A0FB30EA200028BF4FF0FF3008BD29
:1033C00008B50121007CFEF795FB30EA200028BFFC
:1033D0004FF0FF3008BD08B5007CFEF783FB20EA04
:1033E000E07008BD08B5007CFEF774FB20EAE070D1
:1033F00008BD007CFEF78EBB10B50446142100F01A
:1034000086FA204610BD38B50446007C0D46FEF70E
:1034100069FB002801DC607C28B12946207CFEF78E
:1034200071FB20EAE07038BD10B5044600236360EC
:103430004FF47A73A360054B08462360012321747F
:1034400063741146FEF736FB204610BDB8570A08D4
:103450000022007CFEF736BB10B504461422002182
:1034600001F059FD054B20466360054BE36040F2D7
:10347000011323818123238210BD00BFE1070020B7
:103480006007002030B50E4D87B001A8FFF7E4FFBC
:10349000296811F0010410D12846FCF704FE60B140
:1034A00001AA21460748FFF7BFFF2846FCF700FEA8
:1034B000054A0649034800F025FA024807B030BD26
:1034C0005C070020E4080020A8000020A9330A08B7
:1034D00010B504461422002101F01DFD054B2046C5
:1034E0006360054BE36040F2011323818123238253
:1034F00010BD00BF94090020FC08002010B50E4C40
:1035000086B001A8FFF7E4FF2368DB0710D420464C
:10351000FCF7C9FD60B101AA01210848FFF784FF4B
:103520002046FCF7C5FD064A0649044800F0EAF9C2
:10353000024806B010BD00BFF80800208009002036
:10354000A8000020A9330A08002211464068FEF7AF
:103550007DBBF0B5164689B011220F460446002106
:1035600003A801F0D8FC304601F033FD002500959A
:1035700081B27B6803AA3046FEF7DCFA20B1294607
:103580002046FEF781FF03E003A92046FEF76AFF0D
:10359000204609B0F0BD002211464068FEF776BB18
:1035A000002211464068FEF781BB00224068FEF70A
:1035B00075BB002281F001014068FEF75FBB00236C
:1035C0001A4619464068FEF751BB00231A461946B1
:1035D0004068FEF743BB002211464068FEF726BB59
:1035E000002202214068FEF729BB00231A464068EA
:1035F000FEF714BB024B04225A60024A1A6070475D
:10360000980A0020E8570A0810B5044601F0E1FCCA
:10361000013823182046984206D20278197800F81B
:10362000011B03F80129F6E710BD70B50C46911E89
:10363000222920D82546294610B9234430220EE0FD
:10364000B0FBF2F602FB1600C1B2092805F8011B17
:1036500094BF3031573105F8011C3046EBE79942F1
:1036600002D201F8012BFAE7002320460B70FFF786
:10367000CBFF204670BD002070BD000008B5144B84
:1036800033B1FFF7FFFE03681B699847002816DC7B
:10369000104B33B1FFF760FE03681B6998470028A1
:1036A00010DC0D4B0BB1AFF300800C4B7BB1FFF77F
:1036B00025FF03681B699847002806DC08BDAFF3A7
:1036C0000080E5E7AFF30080EBE7AFF3008008BDD3
:1036D00000000000000000000000000000000000EA
:1036E00008B5FFF7CBFFFEF7A3F8014B186008BD44
:1036F000A80A00200248034A0349121A01F000BC3C
:103700000040024004400240D8590A0807B500238F
:1037100000931A466FF07701FEF74EFA03B05DF89A
:1037200004FB000007B543880A2B08D0502B09D1B1
:10373000094B1B683BB103B05DF804EB1847FFF77A
:10374000E5FF06E0002300931A466FF07701FEF7CD
:1037500033FA03B05DF804FBA00A002038B5104C22
:10376000104D2368AB42104B0CBF012200221A708F
:1037700002D0FFF7BFFF2560FEF74AF8044601F0CC
:10378000D3FB0A4B13B12046AFF30080002107485A
:10379000FEF73CFABDE8384000210548FEF702BAC2
:1037A000004002401E1C279AA40A002000000000CE
:1037B00025370A0810B504460F48FFF719F928B154
:1037C000A4F10D03022B01D8002010BD00F040F839
:1037D000FEF714FE08B1012CF6D9FFF7BDFDFFF787
:1037E000B7FD18B1A4F11203012BEDD9172C8CBF32
:1037F0000020012010BD00BFDC0A0020172838B5CA
:1038000004460D460AD8FF2908D0FFF7D3FF28B198
:1038100029462046BDE83840FEF71AB838BD38B50D
:1038200004460D46FEF71CF8FF2810D0062804D8E1
:103830004D2323FA00F0C30709D42046FFF7BAFF4F
:1038400028B129462046BDE83840FEF711B838BDFA
:1038500038B50B4D296811F001040FD12846FCF74B
:1038600022FC58B121460748FEF794FD2846FCF794
:103870001FFC054A0549034800F044F8014838BDDB
:10388000AC0A0020B00A0020A80000203D230A084E
:1038900013B5084C00231A46194600932046FEF73C
:1038A00009FE2046044A054902B0BDE8104000F078
:1038B00029B800BFC40A0020A800002005240A0877
:1038C00070B50C4C0C4E0D4D00212046FFF710F842
:1038D00020460B4C3246294600F014F801212046C0
:1038E000FFF706F8324629462046BDE8704000F052
:1038F00009B800BFDC0A0020A8000020E1280A085F
:10390000EC0A00200B460146184601F0EBBAFCF722
:10391000C8BB08B5FEF7F2F9244B1A68D0075CBFA4
:1039200001221A60224B1A68D1075CBF01221A607B
:10393000204B1A68D2075CBF01221A601E4B1A681E
:10394000D0075CBF01221A601C4B1A68D1075CBF0C
:1039500001221A601A4B1A68D2075CBF01221A6052
:10396000184B1A68D0075CBF01221A60164B1A6800
:10397000D1075CBF01221A60144B1A68D2075CBFE2
:1039800001221A60124B1A68D0075CBF01221A602C
:10399000104B1A68D1075CBF01221A600E4B1A68DF
:1039A000D2075CBF01221A60704700BF280B0020BD
:1039B000240B0020200B00201C0B0020180B0020E3
:1039C000140B0020100B00200C0B0020080B002013
:1039D000040B0020000B0020FC0A0020184B1A6882
:1039E000D1075CBF01221A60164B1A68D2075CBF70
:1039F00001221A60144B1A68D0075CBF01221A60BA
:103A0000124B1A68D1075CBF01221A60104B1A686A
:103A1000D2075CBF01221A600E4B1A68D0075CBF48
:103A200001221A600C4B1A68D1075CBF01221A6090
:103A30000A4B1A68D2075CBF01221A60704700BFA8
:103A4000480B0020440B0020400B00203C0B0020C2
:103A5000380B0020340B0020300B00202C0B0020F2
:103A6000184B1A68D1075CBF01221A60164B1A68FE
:103A7000D2075CBF01221A60144B1A68D0075CBFE2
:103A800001221A60124B1A68D1075CBF01221A602A
:103A9000104B1A68D2075CBF01221A600E4B1A68DD
:103AA000D0075CBF01221A600C4B1A68D1075CBFBB
:103AB00001221A600A4B1A68D2075CBF01221A6001
:103AC000704700BF680B0020640B0020600B0020D3
:103AD0005C0B0020580B0020540B0020500B0020E2
:103AE0004C0B0020244B1A68D0075CBF01221A60DF
:103AF000224B1A68D1075CBF01221A60204B1A685A
:103B0000D2075CBF01221A601E4B1A68D0075CBF47
:103B100001221A601C4B1A68D1075CBF01221A608F
:103B20001A4B1A68D2075CBF01221A60184B1A6838
:103B3000D0075CBF01221A60164B1A68D1075CBF20
:103B400001221A60144B1A68D2075CBF01221A6066
:103B5000124B1A68D0075CBF01221A60104B1A681A
:103B6000D1075CBF01221A600E4B1A68D2075CBFF6
:103B700001221A60704700BF980B0020940B0020B0
:103B8000900B00208C0B0020880B0020840B002061
:103B9000800B00207C0B0020780B0020740B002091
:103BA000700B00206C0B0020C1F30A522DE9F84382
:103BB000A2F2FF36132E0B4604460D4688460746F2
:103BC0001CDC002E3FDB3A4A864642FA06F901EA3F
:103BD0000902024317D034A3D3E9002300F072F89E
:103BE0000022002300F0B0FC20B1002D40DB28EAC9
:103BF0000905002738462946BDE8F883332E06DD3F
:103C0000B6F5806F2FD020461946BDE8F883A2F2A2
:103C100013424FF0FF3929FA02F910EA090FF2D0E6
:103C200021A3D3E9002300F04DF80022002300F087
:103C30008BFC0028DED0002D20DB454627EA090753
:103C400038462946D8E718A3D3E9002300F03AF80C
:103C50000022002300F078FC0028CBD0002D18DBD8
:103C600000273D46C6E702460B4600F02BF8CCE79E
:103C70004FF4801343FA06F6B044B8E7142E10D080
:103C80000123C6F1340603FA06F6371928BF984413
:103C9000D3E725F00042074B224318BF1D460027FB
:103CA000A8E705F10108C8E79C7500883CE4377E69
:103CB000FFFF0F000000F0BF81F0004102E000BFF5
:103CC00083F0004330B54FEA41044FEA430594EADC
:103CD000050F08BF90EA020F1FBF54EA000C55EA17
:103CE000020C7FEA645C7FEA655C00F0E2804FEAE8
:103CF0005454D4EB5555B8BF6D420CDD2C4480EACA
:103D0000020281EA030382EA000083EA010180EAF9
:103D1000020281EA0303362D88BF30BD11F0004F47
:103D20004FEA01314FF4801C4CEA113102D040427D
:103D300061EB410113F0004F4FEA03334CEA1333B8
:103D400002D0524263EB430394EA050F00F0A780D0
:103D5000A4F10104D5F1200E0DDB02FA0EFC22FACB
:103D600005F2801841F1000103FA0EF2801843FABF
:103D700005F359410EE0A5F120050EF1200E012AB0
:103D800003FA0EFC28BF4CF0020C43FA05F3C018EE
:103D900051EBE37101F0004507D54FF0000EDCF167
:103DA000000C7EEB00006EEB0101B1F5801F1BD310
:103DB000B1F5001F0CD349085FEA30004FEA3C0C14
:103DC00004F101044FEA445212F5800F80F09A800A
:103DD000BCF1004F08BF5FEA500C50F1000041EB0E
:103DE000045141EA050130BD5FEA4C0C404141EB12
:103DF000010111F4801FA4F10104E9D191F0000F39
:103E000004BF01460020B1FA81F308BF2033A3F1BB
:103E10000B03B3F120020CDA0C3208DD02F1140CB2
:103E2000C2F10C0201FA0CF021FA02F10CE002F1ED
:103E30001402D8BFC2F1200C01FA02F120FA0CFCE6
:103E4000DCBF41EA0C019040E41AA2BF01EB04512F
:103E5000294330BD6FEA04041F3C1CDA0C340EDC2D
:103E600004F11404C4F1200220FA04F001FA02F370
:103E700040EA030021FA04F345EA030130BDC4F12E
:103E80000C04C4F1200220FA02F001FA04F340EA23
:103E90000300294630BD21FA04F0294630BD94F0D4
:103EA000000F83F4801306BF81F480110134013DBB
:103EB0004EE77FEA645C18BF7FEA655C29D094EA2C
:103EC000050F08BF90EA020F05D054EA000C04BFAA
:103ED0001946104630BD91EA030F1EBF0021002095
:103EE00030BD5FEA545C05D14000494128BF41F034
:103EF000004130BD14F580043CBF01F5801130BD98
:103F000001F0004545F0FE4141F470014FF0000022
:103F100030BD7FEA645C1ABF194610467FEA655CD3
:103F20001CBF0B46024650EA013406BF52EA033575
:103F300091EA030F41F4002130BD00BF90F0000F63
:103F400004BF0021704730B54FF4806404F132049F
:103F50004FF000054FF0000150E700BF90F0000F58
:103F600004BF0021704730B54FF4806404F132047F
:103F700010F0004548BF40424FF000013EE700BF4F
:103F800042004FEAE2014FEA31014FEA02701FBFDF
:103F900012F07F4393F07F4F81F06051704792F0B1
:103FA000000F14BF93F07F4F704730B54FF460742B
:103FB00001F0004521F0004120E700BF50EA010276
:103FC00008BF704730B54FF000050AE050EA010223
:103FD00008BF704730B511F0004502D5404261EB93
:103FE00041014FF4806404F132045FEA915C3FF4D4
:103FF000DCAE4FF003025FEADC0C18BF03325FEA6D
:10400000DC0C18BF033202EBDC02C2F1200300FA21
:1040100003FC20FA02F001FA03FE40EA0E0021FA46
:1040200002F11444C1E600BF70B54FF0FF0C4CF430
:10403000E06C1CEA11541DBF1CEA135594EA0C0FE6
:1040400095EA0C0F00F0DEF82C4481EA030621EA21
:104050004C5123EA4C5350EA013518BF52EA03355C
:1040600041F4801143F4801338D0A0FB02CE4FF00E
:104070000005E1FB02E506F00042E0FB03E54FF03E
:104080000006E1FB03569CF0000F18BF4EF0010E36
:10409000A4F1FF04B6F5007F64F5407404D25FEA32
:1040A0004E0E6D4146EB060642EAC62141EA5551E5
:1040B0004FEAC52040EA5E504FEACE2EB4F1FD0C27
:1040C00088BFBCF5E06F1ED8BEF1004F08BF5FEAA5
:1040D000500E50F1000041EB045170BD06F0004657
:1040E00046EA010140EA020081EA0301B4EB5C0404
:1040F000C2BFD4EB0C0541EA045170BD41F48011FC
:104100004FF0000E013C00F3AB8014F1360FDEBF20
:10411000002001F0004170BDC4F10004203C35DAFC
:104120000C341BDC04F11404C4F1200500FA05F37F
:1041300020FA04F001FA05F240EA020001F0004220
:1041400021F0004110EBD37021FA04F642EB060196
:104150005EEA430E08BF20EAD37070BDC4F10C04C0
:10416000C4F1200500FA04F320FA05F001FA04F284
:1041700040EA020001F0004110EBD37041F1000170
:104180005EEA430E08BF20EAD37070BDC4F120057B
:1041900000FA05F24EEA020E20FA04F301FA05F2E3
:1041A00043EA020321FA04F001F0004121FA04F28B
:1041B00020EA020000EBD3705EEA430E08BF20EA5B
:1041C000D37070BD94F0000F0FD101F00046400095
:1041D00041EB010111F4801F08BF013CF7D041EA17
:1041E000060195F0000F18BF704703F0004652001B
:1041F00043EB030313F4801F08BF013DF7D043EAEC
:104200000603704794EA0C0F0CEA135518BF95EAA1
:104210000C0F0CD050EA410618BF52EA4306D1D128
:1042200081EA030101F000414FF0000070BD50EA47
:10423000410606BF1046194652EA430619D094EAD1
:104240000C0F02D150EA013613D195EA0C0F05D1BB
:1042500052EA03361CBF104619460AD181EA03010F
:1042600001F0004141F0FE4141F470014FF00000C7
:1042700070BD41F0FE4141F4780170BD70B54FF062
:10428000FF0C4CF4E06C1CEA11541DBF1CEA1355E2
:1042900094EA0C0F95EA0C0F00F0A7F8A4EB0504C4
:1042A00081EA030E52EA03354FEA013100F08880BB
:1042B0004FEA03334FF0805545EA131343EA126384
:1042C0004FEA022245EA111545EA10654FEA002639
:1042D0000EF000419D4208BF964244F1FD0404F5F2
:1042E000407402D25B084FEA3202B61A65EB03054E
:1042F0005B084FEA32024FF480104FF4002CB6EB0B
:10430000020E75EB030E22BFB61A754640EA0C008A
:104310005B084FEA3202B6EB020E75EB030E22BFCA
:10432000B61A754640EA5C005B084FEA3202B6EB0B
:10433000020E75EB030E22BFB61A754640EA9C00CA
:104340005B084FEA3202B6EB020E75EB030E22BF9A
:10435000B61A754640EADC0055EA060E18D04FEA58
:10436000051545EA16754FEA06164FEAC30343EAF8
:1043700052734FEAC2025FEA1C1CC0D111F4801FC5
:104380000BD141EA00014FF000004FF0004CB6E7BE
:1043900011F4801F04BF01430020B4F1FD0C88BF5D
:1043A000BCF5E06F3FF6AFAEB5EB030C04BFB6EB68
:1043B000020C5FEA500C50F1000041EB045170BD5B
:1043C0000EF0004E4EEA113114EB5C04C2BFD4EB88
:1043D0000C0541EA045170BD41F480114FF0000E0C
:1043E000013C90E645EA060E8DE60CEA135594EA88
:1043F0000C0F08BF95EA0C0F3FF43BAF94EA0C0F8B
:104400000AD150EA01347FF434AF95EA0C0F7FF4FF
:1044100025AF104619462CE795EA0C0F06D152EA53
:1044200003353FF4FDAE1046194622E750EA410637
:1044300018BF52EA43067FF4C5AE50EA41047FF448
:104440000DAF52EA43057FF4EBAE12E74FF0FF3CAD
:1044500006E000BF4FF0010C02E000BF4FF0010C7E
:104460004DF804CD4FEA410C7FEA6C5C4FEA430CF7
:1044700018BF7FEA6C5C1BD001B050EA410C0CBF46
:1044800052EA430C91EA030F02BF90EA020F0020A8
:10449000704710F1000F91EA030F58BF994208BF0F
:1044A00090422CBFD8176FEAE37040F001007047CC
:1044B0004FEA410C7FEA6C5C02D150EA013C07D123
:1044C0004FEA430C7FEA6C5CD6D152EA033CD3D06E
:1044D0005DF8040B704700BF8446104662468C4668
:1044E0001946634600E000BF01B5FFF7B7FF00289B
:1044F00048BF10F1000F01BD4DF808EDFFF7F4FFC4
:104500000CBF012000205DF808FB00BF4DF808ED4E
:10451000FFF7EAFF34BF012000205DF808FB00BF71
:104520004DF808EDFFF7E0FF94BF012000205DF893
:1045300008FB00BF4DF808EDFFF7CEFF94BF012048
:1045400000205DF808FB00BF4DF808EDFFF7C4FF41
:1045500034BF012000205DF808FB00BF4FEA410C8A
:104560007FEA6C5C02D150EA013C0AD14FEA430C6D
:104570007FEA6C5C02D152EA033C02D14FF00000AA
:1045800070474FF0010070474FEA410212F50012E8
:1045900015D211D56FF47873B3EB625212D94FEA8A
:1045A000C12343F0004343EA505311F0004F23FA74
:1045B00002F018BF404270474FF00000704750EAC9
:1045C000013005D111F0004008BF6FF00040704786
:1045D0004FF00000704700BF4A0011D212F50012E0
:1045E00011D20DD56FF47873B3EB62520ED44FEA4B
:1045F000C12343F0004343EA505323FA02F07047CB
:104600004FF00000704750EA013002D14FF0FF3008
:1046100070474FF0000070474FEA4102B2F1E043AB
:1046200024BFB3F5001CDCF1FE5C0DD901F0004C99
:104630004FEAC0024CEA5070B2F1004F40EB8300E9
:1046400008BF20F00100704711F0804F21D113F115
:104650003872BCBF01F00040704741F480114FEA4E
:104660005252C2F11802C2F1200C10FA0CF320FAD7
:1046700002F018BF40F001004FEAC1234FEAD323F4
:1046800003FA0CFC40EA0C0023FA02F34FEA43035E
:10469000CCE77FEA625307D150EA01331EBF4FF0E7
:1046A000FE4040F44000704701F0004040F0FE4002
:1046B00040F40000704700BF80F0004002E000BFFF
:1046C00081F0004142001FBF5FEA410392EA030FFD
:1046D0007FEA226C7FEA236C6AD04FEA1262D2EB47
:1046E0001363C1BFD218414048404140B8BF5B424C
:1046F000192B88BF704710F0004F40F4000020F0E5
:104700007F4018BF404211F0004F41F4000121F0FA
:104710007F4118BF494292EA030F3FD0A2F1010244
:1047200041FA03FC10EB0C00C3F1200301FA03F182
:1047300000F0004302D5494260EB4000B0F5000FA5
:1047400013D3B0F1807F06D340084FEA310102F164
:104750000102FE2A51D2B1F1004F40EBC25008BF16
:1047600020F0010040EA03007047490040EB0000E0
:1047700010F4000FA2F10102EDD1B0FA80FCACF10F
:10478000080CB2EB0C0200FA0CF0AABF00EBC2500E
:1047900052421843BCBFD0401843704792F0000FFC
:1047A00081F4000106BF80F400000132013BB5E74F
:1047B0004FEA41037FEA226C18BF7FEA236C21D0C5
:1047C00092EA030F04D092F0000F08BF084670472A
:1047D00090EA010F1CBF0020704712F07F4F04D1F8
:1047E000400028BF40F00040704712F100723CBF0B
:1047F00000F50000704700F0004343F0FE4040F435
:10480000000070477FEA226216BF08467FEA2363F2
:104810000146420206BF5FEA412390EA010F40F4DD
:10482000800070474FF0000304E000BF10F0004329
:1048300048BF40425FEA000C08BF704743F0964310
:1048400001464FF000001CE050EA010208BF70472B
:104850004FF000030AE000BF50EA010208BF7047B2
:1048600011F0004302D5404261EB41015FEA010CC7
:1048700002BF84460146002043F0B64308BFA3F1BF
:104880008053A3F50003BCFA8CF2083AA3EBC253A1
:1048900010DB01FA02FC634400FA02FCC2F12002C0
:1048A000BCF1004F20FA02F243EB020008BF20F0F7
:1048B0000100704702F1200201FA02FCC2F120025D
:1048C00050EA4C0021FA02F243EB020008BF20EA52
:1048D000DC7070474FF0FF0C1CEAD0521EBF1CEA80
:1048E000D15392EA0C0F93EA0C0F6FD01A4480EA6E
:1048F000010C400218BF5FEA41211ED04FF0006357
:1049000043EA501043EA5111A0FB01310CF0004082
:10491000B1F5000F3EBF490041EAD3715B0040EAA8
:10492000010062F17F02FD2A1DD8B3F1004F40EB78
:10493000C25008BF20F00100704790F0000F0CF04B
:10494000004C08BF49024CEA502040EA51207F3A0F
:10495000C2BFD2F1FF0340EAC250704740F40000EA
:104960004FF00003013A5DDC12F1190FDCBF00F0DB
:1049700000407047C2F10002410021FA02F1C2F189
:10498000200200FA02FC5FEA310040F1000053EA25
:104990004C0308BF20EADC70704792F0000F00F073
:1049A000004C02BF400010F4000F013AF9D040EA79
:1049B0000C0093F0000F01F0004C02BF490011F40D
:1049C000000F013BF9D041EA0C018FE70CEAD1530B
:1049D00092EA0C0F18BF93EA0C0F0AD030F0004C8B
:1049E00018BF31F0004CD8D180EA010000F000403F
:1049F000704790F0000F17BF90F0004F084691F0FD
:104A0000000F91F0004F14D092EA0C0F01D1420236
:104A10000FD193EA0C0F03D14B0218BF084608D1FF
:104A200080EA010000F0004040F0FE4040F4000049
:104A3000704740F0FE4040F4400070474FF0FF0CDC
:104A40001CEAD0521EBF1CEAD15392EA0C0F93EA23
:104A50000C0F69D0A2EB030280EA010C49024FEA75
:104A6000402037D04FF0805343EA111143EA10132E
:104A70000CF000408B4238BF5B0042F17D024FF4E6
:104A8000000C8B4224BF5B1A40EA0C00B3EB510FC1
:104A900024BFA3EB510340EA5C00B3EB910F24BFAA
:104AA000A3EB910340EA9C00B3EBD10F24BFA3EB2F
:104AB000D10340EADC001B0118BF5FEA1C1CE0D1F7
:104AC000FD2A3FF650AF8B4240EBC25008BF20F0AA
:104AD000010070470CF0004C4CEA50207F32C2BFFE
:104AE000D2F1FF0340EAC250704740F400004FF09B
:104AF0000003013A37E792F0000F00F0004C02BFCC
:104B0000400010F4000F013AF9D040EA0C0093F095
:104B1000000F01F0004C02BF490011F4000F013BEF
:104B2000F9D041EA0C0195E70CEAD15392EA0C0F57
:104B300008D142027FF47DAF93EA0C0F7FF470AF8F
:104B4000084676E793EA0C0F04D14B023FF44CAFD2
:104B500008466EE730F0004C18BF31F0004CCAD167
:104B600030F000427FF45CAF31F000437FF43CAFA3
:104B70005FE700BF53B94AB9002908BF00281CBF2E
:104B80004FF0FF314FF0FF3000F0A6B9ADF1080C47
:104B90006DE904CE00F02AF8DDF804E0DDE9022337
:104BA00004B07047D0B500220E4B06460F46FFF703
:104BB0003BFAFFF711FD0446FFF7C0F900220A4B4C
:104BC000FFF732FA02460B4630463946FFF778F8CF
:104BD000FFF702FD2346002242EA00021046194672
:104BE000D0BD00BF0000F03D0000F0412DE9F04FC6
:104BF0008C460C460546099E002B4FD18A4217462B
:104C00006BD9B2FA82FEBEF1000F0BD0CEF12005B7
:104C100020FA05F501FA0EF345EA030C02FA0EF745
:104C200000FA0EF5390CBCFBF1F0BAB201FB10C36F
:104C300000FB02F84FEA154C4CEA0344A04509D9A1
:104C4000E41900F1FF3380F02881A04540F225816E
:104C500002383C44C8EB0404B4FBF1F301FB134CF1
:104C600003FB02F2ACB244EA0C418A4209D9C919E9
:104C700003F1FF3480F00F818A4240F20C81023B45
:104C800039448A1A43EA00400021002E63D022FAF8
:104C90000EF2002386E80C00BDE8F08F8B4207D9A6
:104CA000002E56D0002186E811000846BDE8F08F9E
:104CB000B3FA83F1002940F09380A34202D38242E9
:104CC00000F2FE80851A64EB03039C460120002E4F
:104CD00041D086E82010BDE8F08F12B90127B7FB5C
:104CE000F2F7B7FA87FEBEF1000F36D1E41B4FEAA8
:104CF00017481FFA87F90121B4FBF8F308FB1344A6
:104D000009FB03F24FEA154C4CEA0444A24207D9CE
:104D1000E41903F1FF3002D2A24200F2D38003462D
:104D2000A41AB4FBF8F008FB104809FB00F9ACB278
:104D300044EA0842914507D9D21900F1FF3402D262
:104D4000914500F2BA802046C9EB020240EA0340D6
:104D50009BE731463046BDE8F08F07FA0EF7CEF1FB
:104D6000200C24FA0CF34FEA1748B3FBF8FA1FFAA9
:104D700087F908FB1A3520FA0CFC04FA0EF40AFB3A
:104D800009FB4CEA040C4FEA1C4242EA05439B45EE
:104D900000FA0EF50AD9DB190AF1FF3280F08B8098
:104DA0009B4540F28880AAF1020A3B44CBEB030307
:104DB000B3FBF8F008FB103300FB09F41FFA8CFC7E
:104DC0004CEA03439C4207D9DB1900F1FF326ED253
:104DD0009C426CD902383B441C1B40EA0A418BE7D9
:104DE000C1F1200E8B4022FA0EFC4CEA030C24FA8F
:104DF0000EF74FEA1C49B7FBF9FA1FFA8CF309FBCF
:104E00001A7720FA0EF88C400AFB03F548EA0404EE
:104E10004FEA144848EA0747BD4202FA01F200FA95
:104E200001FB09D917EB0C070AF1FF3041D2BD4253
:104E30003FD9AAF1020A67447F1BB7FBF9F509FBCA
:104E4000157705FB03F3A4B244EA0747BB4208D930
:104E500017EB0C0705F1FF3027D2BB4225D9023DE5
:104E6000674445EA0A40A0FB0289FF1A4F454546C0
:104E70004C4614D329D066B3BBEB050367EB04079C
:104E800007FA0EFECB40CF404EEA030386E88800C7
:104E90000021BDE8F08F2346F3E61846DAE6B8EBCA
:104EA000020569EB0C040138E5E70546D9E7104631
:104EB00092E78246C0E7924678E702383A4443E7F1
:104EC000084604E7023B3C442AE7C345E7D33C4697
:104ED000D1E73146BDE8F08F704700BF0A220021BC
:104EE00000F020B910B5054C13462CB10A46014616
:104EF0000220AFF3008010BD204610BD000000006E
:104F000010B5431E0A44914204D011F8014B03F836
:104F1000014FF8E710BD03460244934202D003F864
:104F2000011BFAE77047000038B5124B05461C68B4
:104F3000A36BD3B91820FCF7C1FE43F20E33A06374
:104F400003804AF6CD33438041F2342383804EF20E
:104F50006D63C3804DF6EC630381052343810B230E
:104F6000838101220023C0E90423A36B00221D6179
:104F70005A6138BDA400002010F8012B11F8013B44
:104F8000012A28BF9A42F7D0D01A7047034611F879
:104F9000012B03F8012B002AF9D17047024B01467F
:104FA000186800F003B800BFA400002070B50646E2
:104FB00008460C4600F00DF8451C29463046FCF723
:104FC000A5FE064618B12A462146FFF799FF30464E
:104FD00070BD034613F8012B002AFBD1181A0138C3
:104FE0007047F0B5037863B90B78002B18BF002029
:104FF000F0BD15F8012F62B114F8017F30469742D9
:10500000F7D00346461C007810B14D1E5C1EF0E739
:10501000F0BD1846F0BD00002DE9F0470F46804670
:105020003F48D0F800903D4615F8014B09EB0400CD
:10503000407800F0080000F0FF0608B12F46F2E7C4
:105040002D2C03D1BD1C7C78012603E02B2C04BF42
:105050007C78BD1C13B1102B0AD15BE0302C57D1EA
:10506000287800F0DF0058284DD16C7810230235E5
:10507000002E14BF4FF0004C6FF0004CBCFBF3FA55
:105080000027384603FB1ACC09EB040E9EF801E01A
:105090001EF0040F01D0303C0BE01EF0030E1BD0BD
:1050A000BEF1010F0CBF4FF0370E4FF0570ECEEB95
:1050B0000404A34210DDB7F1FF3F0AD0504506D8E3
:1050C00001D1644503DC03FB0040012701E04FF000
:1050D000FF3715F8014BD7E77B1C0CD1002E4FF0A2
:1050E000220314BF4FF000406FF00040C8F80030BA
:1050F0002AB9BDE8F08706B1404272B107B1691E16
:105100001160BDE8F0873024002BB1D10823AFE750
:105110000A23ADE7302CA3D0AAE7BDE8F08700BF93
:105120004000002013460A46014602480068FFF787
:1051300073BF00BFA400002021000A0861000A0814
:105140008D000A0891000A08000000005769726586
:10515000206973456E61626C65643F202853686FF7
:10516000756C6420626520312068657265293A207B
:1051700000436869727020697353656E736F725271
:10518000657475726E3A20004368697270206368B6
:10519000697270497354686572653A2000436869A2
:1051A000727020616464726573733A2030780030E5
:1051B00000436869727020736F667477617265204E
:1051C00056657273696F6E202865672030783236B5
:1051D0002069732076322E36293A203078004261D9
:1051E00074746572792062616452657475726E20A0
:1051F00000426174746572792067617567654973EF
:10520000546865726520007468696E67732E7562F4
:1052100069646F74732E636F6D0077617465725685
:10522000616C75650074656D7056616C75650063C1
:10523000656C6C766F6C746167650073746174651E
:105240006F6663686172670063617061636974614E
:105250006E6365200074656D70657261747572654A
:1052600020006261747465727920766F6C74616776
:105270006520007374617465206F662063686172D5
:1052800067652000616C6572742000594553004EBB
:105290004F00686F775765742000686F77486F74A8
:1052A0002000686F77576574002500686F77486F36
:1052B000740074696D65456C617073656420006588
:1052C0006C6170736564546F53656E64412000694E
:1052D0006E20687474702073656E64204120002F06
:1052E0006170692F76312E362F7661726961626C3A
:1052F00065732F35353830633531333736323534D1
:1053000032363664663866323332622F76616C75B7
:105310006573007B2276616C7565223A007D0050D2
:105320004F5354004170706C69636174696F6E3ED5
:1053300009526573706F6E73652073746174757351
:105340003A20004170706C69636174696F6E3E0948
:105350004854545020526573706F6E736520426FCD
:1053600064793A2000252E3166002521006532003F
:105370005061727469636C652E7075626C697368D4
:105380002077697468206532206D65737361676585
:10539000204641494C454400696E20687474702071
:1053A00073656E64204220002F6170692F76312E64
:1053B000362F7661726961626C65732F35353830CE
:1053C0006335323537363235343236333736356633
:1053D000363566652F76616C75657300696E206879
:1053E0007474702073656E64204320002F617069AF
:1053F0002F76312E362F7661726961626C65732F5C
:1054000035373130333834653736323534323761F9
:1054100035663337306463392F76616C7565730098
:10542000696E20687474702073656E642044200077
:105430002F6170692F76312E362F76617269616225
:105440006C65732F3537313033383739373632356D
:105450003432376233666139646139392F76616C71
:105460007565730054686520706C616E7473206E8E
:105470006565642077617465722120576174657277
:1054800056616C75652069732000436F6E74656E9C
:10549000742D54797065006170706C696361746912
:1054A0006F6E2F6A736F6E00582D417574682D549E
:1054B0006F6B656E00333457476A5931513730335B
:1054C00064465734654E51614A6F4472424D4B58A1
:1054D000484B4639457A5764375869546252765575
:1054E000306A635335395178486E724565734D7231
:1054F000580020485454502F312E300D0A00636C50
:105500006F736500436F6E6E656374696F6E0048FC
:105510004F535400436F6E74656E742D4C656E6707
:105520007468000D0A0D0A00000000000000000071
:10553000B7000A08E3000A08F1000A08C1250A08B2
:1055400000000000000000004B1D0A08511D0A0861
:10555000A71D0A085F1D0A084D1D0A08000000006B
:10556000000000003D230A0887230A085F230A0879
:105570003F230A0867230A086F230A0877230A08CB
:105580007F230A08000000000000000015240A081C
:1055900005240A0807240A086261756400536572CD
:1055A00069616C0055534253657269616C310074D6
:1055B00079706500706172616D00636D640069648B
:1055C00000686E64007374726D0066696C74006CC0
:1055D000766C0061646448616E646C65720072652B
:1055E0006D6F766548616E646C657200656E756D91
:1055F00048616E646C657273004A534F4E53747207
:1056000065616D4C6F6748616E646C6572006170B6
:105610007000253031307520005D20002564002C9D
:10562000200028293A2000205B00636F6465203D3C
:10563000200025690064657461696C73203D200059
:105640006C6E00666E00636F64650064657461690A
:105650006C006E6F6E6500747261636500696E66E2
:105660006F007761726E006572726F720070616EAA
:10567000696300616C6C0000000000000000000025
:10568000DD240A08E7240A08F1240A08FB240A0892
:1056900005250A0811250A081D250A0829250A08D2
:1056A00031250A083B250A0845250A086E616E0067
:1056B0006F7666002E00696E660000000000000034
:1056C00000000000E1280A08E3280A080008101872
:1056D000202830380000000000000000E92D0A08F2
:1056E000EF2D0A0807320A08FD2D0A08EB2D0A08DB
:1056F00000000000000000001D010A0849010A081E
:10570000A52D0A08BF2D0A08052F0A086F2E0A08C2
:10571000412E0A08E72D0A08B12F0A0821320A088B
:10572000A32E0A087D2F0A08FF300A0851310A0803
:10573000CF2D0A08C3300A08212E0A08776972693A
:105740006E6700544350436C69656E7420736F63D9
:105750006B65743D2578005A00252B3033643A255B
:105760003032750025592D256D2D25645425483A74
:10577000254D3A2553257A0061736374696D650080
:105780000000000000000000A1320A08F1320A08FF
:10579000FF320A08C1250A08B5320A08D7320A08BA
:1057A000C3320A08EB320A08A3320A08A7320A08F1
:1057B0000000000000000000A9330A08F9330A08BD
:1057C00007340A08C1250A08E5330A08AB330A087A
:1057D000C1330A08F3330A08D7330A08A5330A0885
:1057E0000000000000000000EB350A08E1350A085F
:1057F000D7350A0849350A08CB350A08BF350A08E3
:10580000B3350A08AB350A08A1350A0897350A08E6
:1058100053350A080020202020202020202028287E
:105820002828282020202020202020202020202060
:1058300020202020208810101010101010101010A0
:1058400010101010100404040404040404040410D0
:10585000101010101010414141414141010101015E
:105860000101010101010101010101010101010128
:105870001010101010104242424242420202020234
:1058800002020202020202020202020202020202F8
:1058900010101010200000000000000000000000A8
:1058A00000000000000000000000000000000000F8
:1058B00000000000000000000000000000000000E8
:1058C00000000000000000000000000000000000D8
:1058D00000000000000000000000000000000000C8
:1058E00000000000000000000000000000000000B8
:1058F00000000000000000000000000000000000A8
:105900000000000000000000000000000000000097
:105910000000000000000000000000000000000087
:105920000000000000000000000000000000000077
:105930000000000000000000000000000000000067
:105940000000000000000000000000000000000057
:105950000000000000000000000000000000000047
:105960000000000000000000000000000000000037
:10597000000000000000000043000000A90C0A081D
:10598000310E0A08D9110A08B3120A082B140A08A2
:10599000FD170A08CD240A08AD250A08C5280A08FB
:1059A0008D2D0A088D320A08F5350A0891380A0843
:1059B000C1380A0819390A08DD390A08613A0A08A3
:1059C000E53A0A08000000000000000000000000A6
:0859D0001CF2FF7F0100000042
:0459D80000000000CB
:1059DC000000000000003EC00000000000805B40A2
:1059EC00983A00000600000060EA0000F41A00007B
:1059FC00E09304008A540A0897540A08A8540A0829
:105A0C00B5540A08000000000000000078570A088E
:105A1C0014580A080000000018590A0838590A08D6
:105A2C0058590A08000000000000000000000000A7
:105A3C000000000078590A08000000000000000077
:105A4C00000000000000000000000000000000004A
:105A5C00000000000000000000000000000000003A
:105A6C00000000000000000000000000000000002A
:085A7C000000000044000020BE
:105A8400FFFFFFFF00000102030405060708090ADF
:105A94000B0C0D0E0F101112131415161718191ADA
:085AA4001B1C1D1E1F20280021
:045AAC0078563412E2
:04000005080A0020C5
:00000001FF
